:0400000093EF0AF080
:080008000000000000000000F0
:100010000000000000000000046ED8CF05F0E0CF23
:1000200006F00001E9CF0CF0EACF07F0E1CF08F0CD
:10003000E2CF09F0D9CF0AF0DACF0BF0F3CF12F00C
:10004000F4CF13F0FACF14F0FBCF15F000C00EF090
:1000500001C00FF002C010F003C011F0F2AA34EF9B
:1000600000F0F2B46BEF01F0A0A23AEF00F0A1B201
:10007000E4EF00F00EC000F00FC001F010C002F07D
:1000800011C003F00CC0E9FF07C0EAFF078E08C0EB
:10009000E1FF09C0E2FF0AC0D9FF0BC0DAFF12C0BE
:1000A000F3FF13C0F4FF14C0FAFF15C0FBFF0450A8
:1000B00006C0E0FF05C0D8FF10007B51070B006EA3
:1000C0007B31016E013201321F0E011601507D2578
:1000D000E96E000E7E21EA6E016A012A002A01D033
:1000E0000136002EFDD77C5303E00150EF1203D000
:1000F000011E0150EF1612007B51070B006E7B3181
:10010000016E013201321F0E011601507C25E96E8D
:10011000000E7D21EA6EEFCF01F0002A01D00132FE
:10012000002EFDD7A4EF00F07AC07BF0010E7C6FAB
:100130000F0E7E6F920E7D6FC0DF7AC07BF00F0EC8
:100140007D6F800E7C6FD8D7000E01B0010E016E5E
:10015000120073C003F072C078F073C079F0110E12
:100160007A6FE2DF79C0EAFF78C0E9FF01C0EFFFF4
:1001700075C003F074C078F075C079F0120E7A6F14
:10018000D3DF79C0EAFF78C0E9FF01C0EFFF77C095
:1001900003F076C078F077C079F0140E7A6FC4DF80
:1001A00079C0EAFF78C0E9FF01C0EFFFF2EF00F08D
:1001B000030E7A6FB9DF0150F9EF00F072C07AF0E8
:1001C000B3DF0150FEEF00F0FC0EB36E180EB26EFE
:1001D000736B6F0E726F756B700E746F776B710E41
:1001E000766FB7D76FC051F070C052F071C053F046
:1001F000DFD701C054F0160E726FE0D701C055F082
:1002000051520DE152520BE1535209E1010E2526E4
:10021000D8B0262AD8B4272AD8B4282A04D0286AE5
:10022000276A266A256A1E50020A09E0010A10E0C0
:10023000060A17E00D0A1EE00C0A33E03AD0010E60
:100240002926D8B02A2AD8B42B2AD8B42C2A31D0BF
:10025000010E2D26D8B02E2AD8B42F2AD8B4302A91
:1002600028D0010E3526D8B0362AD8B4372AD8B4CB
:10027000382A1FD0010E4126D8B0422AD8B4432ACA
:10028000D8B4442A512C0CD0522C0AD0532C08D06C
:10029000010E4526D8B0462AD8B4472AD8B4482AF1
:1002A00008D0010E3126D8B0322AD8B4332AD8B4B7
:1002B000342A545209E1010E3D26D8B03E2AD8B462
:1002C0003F2AD8B4402A04D0406A3F6A3E6A3D6A59
:1002D000A1923AEF00F0D768F60ED66E4E2A4F2A5A
:1002E000D8B4502A4E50090801E24E6A4A504E5C7A
:1002F00002E38B9E01D08B8E949E4B504E5C02E3AA
:100300008A9A01D08A8A939A5050000807E2FF0A1D
:1003100003E14F508F0802E2506A4F6A50504D5C23
:1003200004E305E14C504F5C02E3899401D08984D9
:100330009294F2943AEF00F048656C6C6F0D0A00ED
:100340005330203D202564205331203D202564205A
:100350005332203D2025640D0A0070776D5F6D6F6C
:10036000746F725F636F756E74203D2025640D0A93
:100370000000380E926EC00E936E1E0E946EC290E8
:10038000C150C00B0F09C16E0BEF04F093928A921B
:1003900093908A9093988A9893968A964A6A4B6A21
:1003A0000CEF04F05B5202E1000E01D0010E176A5F
:1003B000F2BC178CF29CF2BE178EF29E5AC07BF0F4
:1003C0007C6F0F0E7E6F890E7D6F77DE17BCF28C0F
:1003D00017BEF28E176AF2BC178CF29CF2BE178E13
:1003E000F29E5AC07BF07C6B0F0E7E6F920E7D6F7B
:1003F00064DE17BCF28C17BEF28E1200020E5A6E2B
:100400005B6AD0DF4D6A4C6A0DEF04F0010E5A6E44
:100410005B6AC8DF5A6A5B6AC5DF0EEF04F05650AC
:10042000E96E57C0EAFFEF6A2B0E5624E96E000E04
:100430005720EA6EEF902B0E5624E96E000E5720DF
:10044000EA6EEF942B0E5624E96E000E5720EA6EEA
:10045000EF922B0E5624E96E000E5720EA6EEF96AF
:100460002B0E5624E96E000E5720EA6EEF982B0EE5
:100470005624E96E000E5720EA6EEF9A2B0E562492
:10048000E96E000E5720EA6EEF9C010E5624E96ECD
:10049000000E5720EA6EEF6A020E5624E96E000E37
:1004A0005720EA6EEF6A030E5624E96E000E5720BD
:1004B000EA6EEF6A040E5624E96E000E5720EA6ECB
:1004C000EF6A050E5624E96E000E5720EA6EEF6AB9
:1004D000060E5624E96E000E5720EA6EEF6A170EDC
:1004E0005624E96E000E5720EA6EEE52EE52EC6A88
:1004F000ED52EF6AED52EF6AED52EF6A070E5624A5
:10050000E96E000E5720EA6EEE52EE52EC6AED52A2
:10051000EF6AED52EF6AED52EF6A270E5624E96E4C
:10052000000E5720EA6EEE52EE52EC6AED52EF6A80
:10053000ED52EF6AED52EF6A1F0E5624E96E000E7F
:100540005720EA6EEE52EE52EC6AED52EF6AED522F
:10055000EF6AED52EF6A0B0E5624E96E000E57203B
:10056000EA6EEE52EE52EC6AED52EF6AED52EF6A2D
:10057000ED52EF6A0F0E5624E96E000E5720EA6E18
:10058000EE52EE52EC6AED52EF6AED52EF6AED5226
:10059000EF6A230E5624E96E000E5720EA6EEE52E3
:1005A000EE52EC6AED52EF6AED52EF6AED52EF6AED
:1005B0001B0E5624E96E000E5720EA6EEE52EE52E4
:1005C000EC6AED52EF6AED52EF6AED52EF6A130EEC
:1005D0005624E96E000E5720EA6EEE52EE52EC6A97
:1005E000ED52EF6AED52EF6AED52EF6A12EF04F04E
:1005F000820ED56ED768F60ED66EF29413EF04F025
:10060000B50EB16EFC0EB36E180EB26EA19214EF61
:1006100004F0F28AA082C00EF21215EF04F0696BAA
:100620006A6B010E6B6FDA6AD96A6E6B610E6D6F61
:10063000EA6A650EE96E6EC0E2FF6DC0E1FF6BC055
:100640006CF0D890E550EE02F3506923F4506A2321
:100650006C2FF7D769C0DEFF6AC069F06A6BD8B04B
:100660006A2B6D2BD8B46E2B6B2B6B510508E0E118
:10067000E7EF03F0D8B203D0EA6A690EE96E006AC8
:10068000016A026A036A696B6A6B6B6B6C6B685117
:100690006711661165112CE0200E6D6FD8906137DF
:1006A00062376337643769376A376B376C3768513D
:1006B0006C5D08E167516B5D05E166516A5D02E1C1
:1006C0006551695D0FE36551695F6651D8A0663D6C
:1006D0006A5F6751D8A0673D6B5F6851D8A0683DDD
:1006E0006C5FD88000360136023603366D2FD6D7C0
:1006F00069C0EFFF6AC0ECFF6BC0ECFF6CC0ECFFA1
:10070000FEEF03F0016A026A006A036A645102E1C3
:10071000635118E0100E656FD8906137623700366C
:1007200003366451035C02E16351005C07E36351EB
:10073000005ED8A003066451035ED88001360236FD
:10074000652FEAD7C8EF03F05E50010808E303E124
:100750005D50F30804E3010E5E6EF40E5D6E5E50B4
:10076000080809E2FF0A03E15D50C40804E2090E2B
:100770005E6EC40E5D6E190E5D245F6E000E5E200F
:10078000606F626F5FC061F0646B320E636FBAD7E7
:1007900002C04DF001C04CF009EF04F05A50B4080B
:1007A00002E2B40E5A6E606B5F6A5E6A5AC05DF018
:1007B00060C064F05FC063F05EC062F05AC061F078
:1007C000686B676B070E666FD00E656F28D703C026
:1007D00060F002C05FF001C05EF000C05DF0D89232
:1007E00003C064F002C063F001C062F000C061F0B9
:1007F000686B676B666BB40E656F3CD7F40E0024B4
:100800005B6E010E01205C6E5CC05EF05BC05DF053
:100810009BD71200AED5BAD5F1D5F8D5576A1E0EC2
:10082000566EFDD5E5D6ECD6F4D65A6AB7DFCBEFD7
:100830000AF00900F55211E0F6CF56F0F7CF57F065
:10084000F8CF58F0F5509EA8FED7AD6E56C0F6FF13
:1008500057C0F7FF58C0F8FFECD7D3EF0AF00900F4
:10086000F6CF57F0F7CF58F0F8CF59F0F5509EA8D3
:10087000FED7AD6E57C0F6FF58C0F7FF59C0F8FF5E
:10088000562EEDD712005D50016A5C5C03E25CC03D
:1008900000F00CD0006A080E5E6E5C3600365D50CB
:1008A000005CD8B0006E01365E2EF7D71200200E25
:1008B00057A8300E586E56C000F056AE08D0001E35
:1008C000002A00C056F02D0E586E578E57800150EA
:1008D00056C05CF0640E5D6ED6DF00C056F0300E80
:1008E0000124596E56C05CF00A0E5D6ECCDF300EEE
:1008F00000245B6E300E01245A6E58C000F0300E9A
:10090000595C04E0578257BE578412D058C059F042
:10091000200E586E300E5A5C04E0578057BE578246
:1009200007D0D8A4578004E159C05AF0200E596E60
:1009300057B405D057B207D057B009D00CD0585093
:100940009EA8FED7AD6E59509EA8FED7AD6E5A50E8
:100950009EA8FED7AD6E5B509EA8FED7AD6E12006E
:10096000F29A51C01FF052C020F053C021F054C081
:1009700022F055C023F0F28A25EF0BF05D50000AFB
:1009800005E0010A0CE0020A13E01BD093928A8270
:1009900093908A9093988A8893968A961AD0939285
:1009A0008A9293908A8093988A9893968A8611D097
:1009B00093928A8293908A9093988A9893968A8643
:1009C00008D093928A9293908A9093988A9893965B
:1009D0008A9612005D500A0802E20A0E5D6E5DC042
:1009E0004AF012005D500A0802E20A0E5D6E5DC018
:1009F0004BF0120093948A84020E5D6EBFDF5D6A35
:100A0000E9DF5D6AEFDF1200010E5A6E5B6ACADC35
:100A100012005A6A010E5B6EC5DC1200EBDFF4DFD8
:100A2000F8DF58C0E9FF59C0EAFF010EEF6E91EF01
:100A30000AF0040E5B24E96E000E5C20EA6EEF2CD7
:100A400003D0000E016E1ED01F0E5B24E96E000E57
:100A50005C20EA6EEFCF5DF0ECCF5EF0ECCF5FF0A4
:100A6000ECCF60F060530AE15F5208E15E5002088B
:100A700007E2FF0A03E15D50E80802E2010E01D03F
:100A8000000E016E71EF05F093948A845D6A76DF43
:100A90005BC05DF09FDF5CC05DF0A4DF1200030E61
:100AA0005824E96E000E5920EA6EEF345B6E5B3617
:100AB000FC0E5B16020E5824E96E000E5920EA6EF9
:100AC000D890EF345B12010E5824E96E000E5920C5
:100AD000EA6EEF505B105A6E59C05CF058C05BF084
:100AE000A8D7015219E086DF2B0E5824E96E000EBC
:100AF0005920EA6EEF50010B08E158C0E9FF59C0D8
:100B0000EAFF020EEF6E62D007D058C0E9FF59C06D
:100B1000EAFF050EEF6E5AD05A522AE1070E58240A
:100B2000E96E000E5920EA6EEFCF5BF0ECCF5CF07F
:100B3000ECCF5DF0ECCF5EF05E520AE15D5208E171
:100B40005C500A080DE2FF0A03E15B50B80808E2B6
:100B500058C0E9FF5950EA6E060EEF6E37D008D044
:100B6000060E5824E96E000E5920EA6EEFCF5AF0B7
:100B70005A50030A07E0020A0BE0070A0FE0020AD4
:100B800013E018D0060E5B6E020E5C6E7DDF16D091
:100B9000060E5B6E010E5C6E77DF10D0020E5B6E90
:100BA000060E5C6E71DF0AD0010E5B6E060E5C6E87
:100BB0006BDF04D0060E5B6E5C6E66DF060E58249B
:100BC000E96E000E5920EA6E5AC0EFFF91EF0AF06D
:100BD0009290897039EF06F0EA6A5A0EE96EEF508A
:100BE0000DE00A0E016E006A002EFED7012EFBD723
:100BF0005F0E006E002EFED7EF2EF3D73CEF06F00F
:100C0000F9DE0B0E5824E96E000E5920EA6EEFCF84
:100C10005AF0ECCF5BF0ECCF5CF0ECCF5DF05D52C6
:100C200009E15C5207E11B505B5C22E303E15A508F
:100C30001A5C1EE22B0E5824E96E000E5920EA6E53
:100C4000EF800B0E5824E96E000E5920EA6EEE522A
:100C5000EE52EC6AED52EF6AED52EF6AED52EF6A36
:100C600058C0E9FF59C0EAFF030EEF6ED2DE04D090
:100C7000AFD7640E5A6EB0D791EF0AF093948A847E
:100C8000010E5D6E7BDE5AC05DF0A4DE5BC05DF0E0
:100C9000A9DE4FEF06F0020E5A6E5B6EEFD70F0E15
:100CA0005824E96E000E5920EA6EEFCF5AF0ECCFCF
:100CB0005BF0ECCF5CF0ECCF5DF05D520AE15C5292
:100CC00008E15B5002081BE2FF0A03E15A50E80802
:100CD00016E290DE0F0E5824E96E000E5920EA6EDF
:100CE000EE52EE52EC6AED52EF6AED52EF6AED52BF
:100CF000EF6A58C0E9FF59C0EAFF040EEF6E91EFAA
:100D00000AF093948A84030E5D6E38DE040E5D6EE5
:100D100061DE040E5D6E66DEBBEF06F02B0E5A241C
:100D2000E96E000E5B20EA6EEF902B0E5A24E96EFE
:100D3000000E5B20EA6EEF942B0E5A24E96E000E33
:100D40005B20EA6EEF922B0E5A24E96E000E5B20B8
:100D5000EA6EEF962B0E5A24E96E000E5B20EA6EC7
:100D6000EF882B0E5A24E96E000E5B20EA6EEF9A94
:100D7000FEEF07F0C6D7130E5824E96E000E592077
:100D8000EA6EEFCF5AF0ECCF5BF0ECCF5CF0ECCF3B
:100D90005DF05D520AE15C5208E15B50010805E339
:100DA00003E15A50F30801E32AD1010E5824E96EF9
:100DB000000E5920EA6EEF5243E1020E5824E96E0C
:100DC000000E5920EA6EEF523BE1030E5824E96E03
:100DD000000E5920EA6EEF5233E1070E5824E96EF7
:100DE000000E5920EA6EEFCF5AF0ECCF5BF0ECCF5B
:100DF0005CF0ECCF5DF05D520AE15C5208E15B50C3
:100E00000A081CE2FF0A03E15A50B80817E2130E61
:100E10005824E96E000E5920EA6EEE52EE52EC6A4A
:100E2000ED52EF6AED52EF6AED52EF6A58C0E9FFFA
:100E300059C0EAFF060EEF6EE2D001D0E0D0DFD05D
:100E40002B0E5824E96E000E5920EA6EEFCF00F009
:100E50000030010B010828E12B0E5824E96E000E2A
:100E60005920EA6EEFCF00F00038010B1DE1130EA0
:100E70005824E96E000E5920EA6EEE52EE52EC6AEA
:100E8000ED52EF6AED52EF6AED52EF6A58C0E9FF9A
:100E900059C0EAFF080EEF6E2B0E5824E96E000EC3
:100EA0005920EA6EEF86ABD02B0E5824E96E000E67
:100EB0005920EA6EEFCF00F00030010B1DE1130E58
:100EC0005824E96E000E5920EA6EEE52EE52EC6A9A
:100ED000ED52EF6AED52EF6AED52EF6A58C0E9FF4A
:100EE00059C0EAFF010EEF6E2B0E5824E96E000E7A
:100EF0005920EA6EEF8483D02B0E5824E96E000E41
:100F00005920EA6EEFCF00F00030010B010836E106
:100F10002B0E5824E96E000E5920EA6EEFCF00F038
:100F20000038010B01082AE12B0E5824E96E000E4F
:100F30005920EA6EEFCF00F0003200320030010B92
:100F40001DE1130E5824E96E000E5920EA6EEE5290
:100F5000EE52EC6AED52EF6AED52EF6AED52EF6A33
:100F600058C0E9FF59C0EAFF010EEF6E2B0E58245E
:100F7000E96E000E5920EA6EEF8641D02B0E582400
:100F8000E96E000E5920EA6EEFCF00F00030010B41
:100F9000010835E12B0E5824E96E000E5920EA6E47
:100FA000EFCF00F00038010B010829E12B0E582487
:100FB000E96E000E5920EA6EEFCF00F000320032E9
:100FC0000030010B01081BE1130E5824E96E000EDE
:100FD0005920EA6EEE52EE52EC6AED52EF6AED5293
:100FE000EF6AED52EF6A58C0E9FF59C0EAFF010EFF
:100FF000EF6E59C05BF058C05AF090D605DD91EF06
:101000000AF0010E5A6E5B6ED2EC01F061EF08F04F
:10101000F1DC2B0E5824E96E000E5920EA6EEFCF5A
:1010200000F0003A0030010B0CE1370E5A6ECEECA6
:1010300003F02B0E5824E96E000E5920EA6EEF8A59
:1010400040D0170E5824E96E000E5920EA6EEFCFFB
:101050005AF0ECCF5BF0ECCF5CF0ECCF5DF05D5282
:1010600009E15C5207E11D505B5C2BE303E15A5040
:101070001C5C27E25A6ACEEC03F02B0E5824E96E72
:10108000000E5920EA6EEF9A2B0E5824E96E000EDE
:101090005920EA6EEF82170E5824E96E000E59208F
:1010A000EA6EEE52EE52EC6AED52EF6AED52EF6AE2
:1010B000ED52EF6A58C0E9FF59C0EAFF030EEF6E28
:1010C000A0D791EF0AF096DC050E5824E96E000EC9
:1010D0005920EA6EEF5206E158C0E9FF59C0EAFF15
:1010E000070EEF6E12002B0E5824E96E000E5920E9
:1010F000EA6EEFA051D02B0E5824E96E000E592055
:10110000EA6EEFA440D02B0E5824E96E000E592051
:10111000EA6EEFA231D02B0E5824E96E000E592052
:10112000EA6EEFA619D02B0E5824E96E000E592056
:10113000EA6EEFCF00F00038010B07E158C0E9FF7D
:1011400059C0EAFF080EEF6E06D058C0E9FF59C03B
:10115000EAFF010EEF6E0FD01D6A1C6A2B0E582499
:10116000E96E000E5920EA6EEF8A58C0E9FF59C0B7
:10117000EAFF010EEF6E06D058C0E9FF59C0EAFF42
:10118000010EEF6E08D01B6A1A6A58C0E9FF59C0F9
:10119000EAFF010EEF6E06D058C0E9FF59C0EAFF22
:1011A000010EEF6E91EF0AF0030E5824E96E000E67
:1011B0005920EA6EEF345B6E5B36FC0E5B16020E56
:1011C0005824E96E000E5920EA6ED890EF345B1275
:1011D000010E5824E96E000E5920EA6EEF505B10A4
:1011E0005A6E5A50070808E02B0E5824E96E000E7C
:1011F0005920EA6EEFAC56D02B0E5824E96E000E43
:101200005920EA6EEF8C270E5824E96E000E592003
:10121000EA6EEFCF5BF0ECCF5CF0ECCF5DF0ECCFA3
:101220005EF05E520CE15D520AE15C5208E15B50F7
:10123000310805E3020E5B6E5C6E26DC1AD12B0EC4
:101240005824E96E000E5920EA6EEF882B0E5824C0
:10125000E96E000E5920EA6EEF9C270E5824E96EC5
:10126000000E5920EA6EEE52EE52EC6AED52EF6A31
:10127000ED52EF6AED52EF6A230E5824E96E000E2C
:101280005920EA6EEE52EE52EC6AED52EF6AED52E0
:10129000EF6AED52EF6A58C0E9FF59C0EAFF040E49
:1012A000EF6EE7D0230E5824E96E000E5920EA6E47
:1012B000EFCF5BF0ECCF5CF0ECCF5DF0ECCF5EF00D
:1012C0005E5245E15D5243E15C500B0840E303E1AF
:1012D0005B50B7083CE35A5239E1070E5824E96ED7
:1012E000000E5920EA6EEFCF5BF0ECCF5CF0ECCF54
:1012F0005DF0ECCF5EF05E520AE15D5208E15C50B9
:101300000A081CE2FF0A03E15B50B80817E2230E4B
:101310005824E96E000E5920EA6EEE52EE52EC6A45
:10132000ED52EF6AED52EF6AED52EF6A58C0E9FFF5
:1013300059C0EAFF060EEF6E9CD008D0060E582466
:10134000E96E000E5920EA6EEFCF5AF03FD05A52A4
:101350003DE1070E5824E96E000E5920EA6EEFCFEA
:101360005BF0ECCF5CF0ECCF5DF0ECCF5EF05E526A
:1013700007E15D5205E15C5203E15B5064081EE247
:101380002B0E5824E96E000E5920EA6EEF88230ECA
:101390005824E96E000E5920EA6EEE52EE52EC6AC5
:1013A000ED52EF6AED52EF6AED52EF6A58C0E9FF75
:1013B00059C0EAFF040EEF6E5CD008D0060E582428
:1013C000E96E000E5920EA6EEFCF5AF05A50020A29
:1013D00007E0040A13E0020A20E0070A2DE03BD0F0
:1013E000060E5B6E5C6E44EC05F0060E5824E96E4A
:1013F000000E5920EA6E020EEF6E3BD0020E5B6EBD
:10140000060E5C6E44EC05F0060E5824E96E000EE4
:101410005920EA6E060EEF6E2CD0010E5B6E060EA2
:101420005C6E44EC05F0060E5824E96E000E59205F
:10143000EA6E040EEF6E1DD0060E5B6E020E5C6E41
:1014400044EC05F0060E5824E96E000E5920EA6EB1
:10145000030EEF6E0ED0060E5B6E010E5C6E44EC5A
:1014600005F0060E5824E96E000E5920EA6E010EB2
:10147000EF6E91EF0AF05650E96E57C0EAFFEF5059
:1014800011E0010A16E0030A1BE0010A20E0070A46
:1014900025E0010A29E0030A2DE0010A31E00F0AE4
:1014A00035E03AD057C059F056C058F00EEF05F06D
:1014B00038D057C059F056C058F04FEF05F031D032
:1014C00057C059F056C058F000EF06F02AD057C068
:1014D00059F056C058F04BEF06F023D057C059F0E2
:1014E00056C058F047D41DD057C059F056C058F0D8
:1014F0008FD517D057C059F056C058F0E4DD11D041
:1015000057C059F056C058F0EED50BD057C059F01F
:1015100056C058F049D605D057C059F056C058F0BB
:10152000D2DD29EF0BF0F86AF194A292D08E078EEB
:10153000700ED36E400E9B6ED350B886400EAF6EC9
:10154000030EB06EA60EAC6E900EAB6E010E516E19
:10155000010E526E010E536E010E546E556A4E6AA4
:10156000506A4F6A4A6A4B6A4D6A4C6A0B0E1B6E90
:10157000B80E1A6E0B0E1D6EB80E1C6EC150C00B4D
:101580000F09C16E186A196A700ED36E400E9B6EF9
:10159000D3500AEF04F0380EF66E030EF76E000E0D
:1015A000F86E19EF04F0400EF66E030EF76E000EA3
:1015B000F86E050E566E2FEC04F051C056F0180E62
:1015C000576E57EC04F0470EF66E030EF76E000EE2
:1015D000F86E060E566E2FEC04F052C056F0180E40
:1015E000576E57EC04F04F0EF66E030EF76E000EBA
:1015F000F86E060E566E2FEC04F053C056F0180E1F
:10160000576E57EC04F00D0E9EA8FED7AD6E0A0E75
:101610009EA8FED7AD6E5A0EF66E030EF76E000E44
:10162000F86E120E566E2FEC04F04EC056F0180EE7
:10163000576E57EC04F00D0E9EA8FED7AD6E0A0E45
:101640009EA8FED7AD6EB0EF04F0576A1E0E566E20
:0616500012D7A1D7030030
:020000040030CA
:0E00000000C8181E0086B1003FC03FE03F4020
:00000001FF
;PIC18F2685
;CRC=CCA9  CREATED="20-Thg8-26 22:15"
