:0400000022EF0AF0F1
:0800080057EF00F000000000BA
:100010000000000000000000046ED8CF05F0E0CF23
:1000200006F00001E9CF0CF0EACF07F0E1CF08F0CD
:10003000E2CF09F0D9CF0AF0DACF0BF0F3CF12F00C
:10004000F4CF13F0FACF14F0FBCF15F000C00EF090
:1000500001C00FF002C010F003C011F0F2AA34EF9B
:1000600000F0F2B429EF01F00EC000F00FC001F073
:1000700010C002F011C003F00CC0E9FF07C0EAFF96
:10008000078E08C0E1FF09C0E2FF0AC0D9FF0BC01C
:10009000DAFF12C0F3FF13C0F4FF14C0FAFF15C05B
:1000A000FBFF045006C0E0FF05C0D8FF1000186E2B
:1000B000D8CF19F0E0CF1AF00001E9CF20F0EACF55
:1000C0001BF0E1CF1CF0E2CF1DF0D9CF1EF0DACF4C
:1000D0001FF0F3CF26F0F4CF27F0FACF28F0FBCFB4
:1000E00029F000C022F001C023F002C024F003C0B8
:1000F00025F09DA07FEF00F09EB0B0EF01F022C090
:1001000000F023C001F024C002F025C003F020C09D
:10011000E9FF1BC0EAFF1B8E1CC0E1FF1DC0E2FF10
:100120001EC0D9FF1FC0DAFF26C0F3FF27C0F4FFAF
:1001300028C0FAFF29C0FBFF18501AC0E0FF19C001
:10014000D8FF10008C51070B006E8C31016E01320C
:1001500001321F0E011601508E25E96E000E8F210F
:10016000EA6E016A012A002A01D00136002EFDD76D
:100170008D5303E00150EF1203D0011E0150EF1622
:1001800012008C51070B006E8C31016E013201326E
:100190001F0E011601508D25E96E000E8E21EA6EAC
:1001A000EFCF01F0002A01D00132002EFDD7E9EF98
:1001B00000F08BC08CF0010E8D6F0F0E8F6F920EC2
:1001C0008E6FC0DF8BC08CF00F0E8E6F800E8D6F28
:1001D000D8D7000E01B0010E016E120084C003F0EA
:1001E00083C089F084C08AF0110E8B6FE2DF8AC071
:1001F000EAFF89C0E9FF01C0EFFF86C003F085C0B8
:1002000089F086C08AF0120E8B6FD3DF8AC0EAFFB6
:1002100089C0E9FF01C0EFFF88C003F087C089F003
:1002200088C08AF0140E8B6FC4DF8AC0EAFF89C0D1
:10023000E9FF01C0EFFF37EF01F0030E8B6FB9DF6D
:1002400001503EEF01F083C08BF0B3DF015043EF6C
:1002500001F0FE0ED76E0C0ED66E846B800E836F8F
:10026000866B810E856F886B820E876FB7D780C0D3
:1002700062F081C063F082C064F0DFD701C065F036
:10028000160E836FE0D701C066F062530DE1635331
:100290000BE1645309E1010E3626D8B0372AD8B4F1
:1002A000382AD8B4392A04D0396A386A376A366AA3
:1002B0002F50020A09E0010A10E0060A17E00D0AB1
:1002C0001EE00C0A33E03AD0010E3A26D8B03B2AA1
:1002D000D8B43C2AD8B43D2A31D0010E3E26D8B03D
:1002E0003F2AD8B4402AD8B4412A28D0010E462645
:1002F000D8B0472AD8B4482AD8B4492A1FD0010E0A
:100300005226D8B0532AD8B4542AD8B4552A622DCC
:100310000CD0632D0AD0642D08D0010E5626D8B01B
:10032000572AD8B4582AD8B4592A08D0010E4226E0
:10033000D8B0432AD8B4442AD8B4452A655309E131
:10034000010E4E26D8B04F2AD8B4502AD8B4512A1C
:1003500004D0516A506A4F6A4E6AF29434EF00F04A
:10036000CF68CE0ECE6E5F2A602BD8B4612B5F5063
:10037000090801E25F6A5B505F5C02E38B9E01D07B
:100380008B8E949E5C505F5C02E38A9A01D08A8ACD
:10039000939A6151000807E2FF0A03E160518F0858
:1003A00002E2616B606B61515E5C04E305E15D50EC
:1003B000605D02E3899401D0898492949E907FEFDE
:1003C00000F0380E926EC00E936E1E0E946EC290A8
:1003D000C150C00B0F09C16E33EF04F093928A92A3
:1003E00093908A9093988A9893968A965B6A5C6AAF
:1003F00034EF04F06C5302E1000E01D0010E176AD5
:10040000F2BC178CF29CF2BE178EF29E6BC08CF081
:100410008D6F0F0E8F6F890E8E6F94DE17BCF28C6E
:1004200017BEF28E176AF2BC178CF29CF2BE178EC2
:10043000F29E6BC08CF08D6B0F0E8F6F920E8E6FD5
:1004400081DE17BCF28C17BEF28E1200020E6B6FAB
:100450006C6BD0DF5E6A5D6A35EF04F0010E6B6F86
:100460006C6BC8DF6B6B6C6BC5DF36EF04F06751EC
:10047000E96E68C0EAFFEF6A2B0E6725E96E000E91
:100480006821EA6EEF902B0E6725E96E000E682159
:10049000EA6EEF942B0E6725E96E000E6821EA6E76
:1004A000EF922B0E6725E96E000E6821EA6EEF963B
:1004B0002B0E6725E96E000E6821EA6EEF982B0E71
:1004C0006725E96E000E6821EA6EEF9A2B0E67250C
:1004D000E96E000E6821EA6EEF9C010E6725E96E59
:1004E000000E6821EA6EEF6A020E6725E96E000EC3
:1004F0006821EA6EEF6A030E6725E96E000E682137
:10050000EA6EEF6A040E6725E96E000E6821EA6E56
:10051000EF6A050E6725E96E000E6821EA6EEF6A44
:10052000060E6725E96E000E6821EA6EEF6A170E67
:100530006725E96E000E6821EA6EEE52EE52EC6A13
:10054000ED52EF6AED52EF6AED52EF6A070E672542
:10055000E96E000E6821EA6EEE52EE52EC6AED5240
:10056000EF6AED52EF6AED52EF6A270E6725E96EEA
:10057000000E6821EA6EEE52EE52EC6AED52EF6A1E
:10058000ED52EF6AED52EF6A1F0E6725E96E000E1D
:100590006821EA6EEE52EE52EC6AED52EF6AED52CD
:1005A000EF6AED52EF6A0B0E6725E96E000E6821C7
:1005B000EA6EEE52EE52EC6AED52EF6AED52EF6ADD
:1005C000ED52EF6A0F0E6725E96E000E6821EA6EA4
:1005D000EE52EE52EC6AED52EF6AED52EF6AED52D6
:1005E000EF6A230E6725E96E000E6821EA6EEE526F
:1005F000EE52EC6AED52EF6AED52EF6AED52EF6A9D
:100600001B0E6725E96E000E6821EA6EEE52EE526F
:10061000EC6AED52EF6AED52EF6AED52EF6A130E9B
:100620006725E96E000E6821EA6EEE52EE52EC6A22
:10063000ED52EF6AED52EF6AED52EF6A3AEF04F0D5
:10064000830ED56EFE0ED76E0C0ED66EF2943BEF77
:1006500004F0B50ECD6ECF68F60ECE6E9E903CEFD8
:1006600004F0F28A9D80C00EF2123DEF04F07A6B26
:100670007B6B010E7C6FDA6AD96A7F6B720E7E6FBC
:10068000EA6A760EE96E7FC0E2FF7EC0E1FF7CC0C1
:100690007DF0D890E550EE02F3507A23F4507B239E
:1006A0007D2FF7D77AC0DEFF7BC07AF07B6BD8B0A6
:1006B0007B2B7E2BD8B47F2B7C2B7C510508E0E173
:1006C0000FEF04F0D8B203D0EA6A7A0EE96E006A3E
:1006D000016A026A036A7A6B7B6B7C6B7D6B795172
:1006E0007811771176112CE0200E7E6FD89072373A
:1006F0007337743775377A377B377C377D37795165
:100700007D5D08E178517C5D05E177517B5D02E11B
:1007100076517A5D0FE376517A5F7751D8A0773DB5
:100720007B5F7851D8A0783D7C5F7951D8A0793D26
:100730007D5FD88000360136023603367E2FD6D74D
:100740007AC0EFFF7BC0ECFF7CC0ECFF7DC0ECFF0C
:1007500026EF04F0016A026A006A036A755102E139
:10076000745118E0100E766FD890723773370036D8
:1007700003367551035C02E17451005C07E3745168
:10078000005ED8A003067551035ED880013602369C
:10079000762FEAD7F0EF03F06F51010808E303E189
:1007A0006E51F30804E3010E6F6FF40E6E6F6F511C
:1007B000080809E2FF0A03E16E51C40804E2090EC9
:1007C0006F6FC40E6E6F190E6E25706F000E6F2165
:1007D000716F736F70C072F0756B320E746FBAD731
:1007E00002C05EF001C05DF031EF04F06B51B4085F
:1007F00002E2B40E6B6F716B706B6F6B6BC06EF05F
:1008000071C075F070C074F06FC073F06BC072F09F
:10081000796B786B070E776FD00E766F28D703C091
:1008200071F002C070F001C06FF000C06EF0D8929D
:1008300003C075F002C074F001C073F000C072F024
:10084000796B786B776BB40E766F3CD7F40E00241F
:100850006C6F010E01206D6F6DC06FF06CC06EF09B
:100860009BD71200AED5BAD5F1D5F8D5686B2F0E4F
:10087000676FFDD5E5D6EDD6F4D66B6BB7DF4FEFDE
:100880000AF0F29A62C030F063C031F064C032F016
:1008900065C033F066C034F0F28A51EF0AF06E5151
:1008A000000A05E0010A0CE0020A13E01BD0939253
:1008B0008A8293908A9093988A8893968A961AD07F
:1008C00093928A9293908A8093988A9893968A8634
:1008D00011D093928A8293908A9093988A98939653
:1008E0008A8608D093928A9293908A9093988A9855
:1008F00093968A9612006E510A0802E20A0E6E6FF3
:100900006EC05BF012006E510A0802E20A0E6E6FB2
:100910006EC05CF0120093948A84020E6E6FBFDF8B
:100920006E6BE9DF6E6BEFDF1200010E6B6F6C6BAD
:1009300061DD12006B6B010E6C6F5CDD1200EBDF92
:10094000F4DFF8DF69C0E9FF6AC0EAFF010EEF6E6D
:1009500020EF0AF0040E6C25E96E000E6D21EA6EA0
:10096000EF2C03D0000E016E1ED01F0E6C25E96E19
:10097000000E6D21EA6EEFCF6EF0ECCF6FF0ECCF92
:1009800070F0ECCF71F071530AE1705308E16F51D0
:10099000020807E2FF0A03E16E51E80802E2010ED5
:1009A00001D0000E016E02EF05F093948A846E6B05
:1009B00076DF6CC06EF09FDF6DC06EF0A4DF1200BA
:1009C000030E6925E96E000E6A21EA6EEF346C6F42
:1009D0006C37FC0E6C17020E6925E96E000E6A2159
:1009E000EA6ED890EF346C13010E6925E96E000EA3
:1009F0006A21EA6EEF506C116B6F6AC06DF069C0CE
:100A00006CF0A8D7015219E086DF2B0E6925E96E3C
:100A1000000E6A21EA6EEF50010B08E169C0E9FFA0
:100A20006AC0EAFF020EEF6E62D007D069C0E9FF2C
:100A30006AC0EAFF050EEF6E5AD06B532AE1070E2B
:100A40006925E96E000E6A21EA6EEFCF6CF0ECCFFB
:100A50006DF0ECCF6EF0ECCF6FF06F530AE16E5398
:100A600008E16D510A080DE2FF0A03E16C51B80874
:100A700008E269C0E9FF6A51EA6E060EEF6E37D0F0
:100A800008D0060E6925E96E000E6A21EA6EEFCFE6
:100A90006BF06B51030A07E0020A0BE0070A0FE054
:100AA000020A13E018D0060E6C6F020E6D6F7DDF28
:100AB00016D0060E6C6F010E6D6F77DF10D0020E30
:100AC0006C6F060E6D6F71DF0AD0010E6C6F060E33
:100AD0006D6F6BDF04D0060E6C6F6D6F66DF060EF8
:100AE0006925E96E000E6A21EA6E6BC0EFFF20EF08
:100AF0000AF092908970CAEF05F0EA6A6B0EE96E0F
:100B0000EF500DE00A0E016E006A002EFED7012E96
:100B1000FBD75F0E006E002EFED7EF2EF3D7CDEF82
:100B200005F0F9DE0B0E6925E96E000E6A21EA6E0A
:100B3000EFCF6BF0ECCF6CF0ECCF6DF0ECCF6EF054
:100B40006E5309E16D5307E12C506C5D22E303E124
:100B50006B512B5C1EE22B0E6925E96E000E6A219B
:100B6000EA6EEF800B0E6925E96E000E6A21EA6ECF
:100B7000EE52EE52EC6AED52EF6AED52EF6AED5230
:100B8000EF6A69C0E9FF6AC0EAFF030EEF6ED2DECA
:100B900004D0AFD7640E6B6FB0D720EF0AF09394F8
:100BA0008A84010E6E6F7BDE6BC06EF0A4DE6CC0BB
:100BB0006EF0A9DEE0EF05F0020E6B6F6C6FEFD701
:100BC0000F0E6925E96E000E6A21EA6EEFCF6BF019
:100BD000ECCF6CF0ECCF6DF0ECCF6EF06E530AE121
:100BE0006D5308E16C5102081BE2FF0A03E16B51EF
:100BF000E80816E290DE0F0E6925E96E000E6A2104
:100C0000EA6EEE52EE52EC6AED52EF6AED52EF6A86
:100C1000ED52EF6A69C0E9FF6AC0EAFF040EEF6EA9
:100C200020EF0AF093948A84030E6E6F38DE040E70
:100C30006E6F61DE040E6E6F66DE4CEF06F02B0EFB
:100C40006B25E96E000E6C21EA6EEF902B0E6B2582
:100C5000E96E000E6C21EA6EEF942B0E6B25E96EA7
:100C6000000E6C21EA6EEF922B0E6B25E96E000EE2
:100C70006C21EA6EEF962B0E6B25E96E000E6C214F
:100C8000EA6EEF882B0E6B25E96E000E6C21EA6E82
:100C9000EF9A8FEF07F0C6D7130E6925E96E000EA5
:100CA0006A21EA6EEFCF6BF0ECCF6CF0ECCF6DF019
:100CB000ECCF6EF06E530AE16D5308E16C51010800
:100CC00005E303E16B51F30801E32AD1010E692525
:100CD000E96E000E6A21EA6EEF5243E1020E6925C9
:100CE000E96E000E6A21EA6EEF523BE1030E6925C0
:100CF000E96E000E6A21EA6EEF5233E1070E6925B4
:100D0000E96E000E6A21EA6EEFCF6BF0ECCF6CF06B
:100D1000ECCF6DF0ECCF6EF06E530AE16D5308E14D
:100D20006C510A081CE2FF0A03E16B51B80817E294
:100D3000130E6925E96E000E6A21EA6EEE52EE523C
:100D4000EC6AED52EF6AED52EF6AED52EF6A69C05C
:100D5000E9FF6AC0EAFF060EEF6EE2D001D0E0D0F4
:100D6000DFD02B0E6925E96E000E6A21EA6EEFCF07
:100D700000F00030010B010828E12B0E6925E96E17
:100D8000000E6A21EA6EEFCF00F00038010B1DE182
:100D9000130E6925E96E000E6A21EA6EEE52EE52DC
:100DA000EC6AED52EF6AED52EF6AED52EF6A69C0FC
:100DB000E9FF6AC0EAFF080EEF6E2B0E6925E96EA7
:100DC000000E6A21EA6EEF86ABD02B0E6925E96E24
:100DD000000E6A21EA6EEFCF00F00030010B1DE13A
:100DE000130E6925E96E000E6A21EA6EEE52EE528C
:100DF000EC6AED52EF6AED52EF6AED52EF6A69C0AC
:100E0000E9FF6AC0EAFF010EEF6E2B0E6925E96E5D
:100E1000000E6A21EA6EEF8483D02B0E6925E96EFD
:100E2000000E6A21EA6EEFCF00F00030010B0108DE
:100E300036E12B0E6925E96E000E6A21EA6EEFCFCE
:100E400000F00038010B01082AE12B0E6925E96E3C
:100E5000000E6A21EA6EEFCF00F00032003200305F
:100E6000010B1DE1130E6925E96E000E6A21EA6E81
:100E7000EE52EE52EC6AED52EF6AED52EF6AED522D
:100E8000EF6A69C0E9FF6AC0EAFF010EEF6E2B0E40
:100E90006925E96E000E6A21EA6EEF8641D02B0EBD
:100EA0006925E96E000E6A21EA6EEFCF00F000308E
:100EB000010B010835E12B0E6925E96E000E6A2150
:100EC000EA6EEFCF00F00038010B010829E12B0E8C
:100ED0006925E96E000E6A21EA6EEFCF00F000325C
:100EE00000320030010B01081BE1130E6925E96E89
:100EF000000E6A21EA6EEE52EE52EC6AED52EF6A93
:100F0000ED52EF6AED52EF6A69C0E9FF6AC0EAFF8D
:100F1000010EEF6E6AC06CF069C06BF090D605DD13
:100F200020EF0AF0010E6B6F6C6FFAEC01F0F0EF3E
:100F300007F0F1DC2B0E6925E96E000E6A21EA6EDE
:100F4000EFCF00F0003A0030010B0BE1370E6B6F72
:100F50004DDC2B0E6925E96E000E6A21EA6EEF8AE0
:100F60003FD0170E6925E96E000E6A21EA6EEFCFB9
:100F70006BF0ECCF6CF0ECCF6DF0ECCF6EF06E530D
:100F800009E16D5307E12E506C5D2AE303E16B51DB
:100F90002D5C26E26B6B2ADC2B0E6925E96E000EB8
:100FA0006A21EA6EEF9A2B0E6925E96E000E6A211E
:100FB000EA6EEF82170E6925E96E000E6A21EA6E6D
:100FC000EE52EE52EC6AED52EF6AED52EF6AED52DC
:100FD000EF6A69C0E9FF6AC0EAFF030EEF6EA2D7AD
:100FE00020EF0AF098DC050E6925E96E000E6A21F3
:100FF000EA6EEF5206E169C0E9FF6AC0EAFF070E38
:10100000EF6E12002B0E6925E96E000E6A21EA6E62
:10101000EFA051D02B0E6925E96E000E6A21EA6E11
:10102000EFA440D02B0E6925E96E000E6A21EA6E0E
:10103000EFA231D02B0E6925E96E000E6A21EA6E0F
:10104000EFA619D02B0E6925E96E000E6A21EA6E13
:10105000EFCF00F00038010B07E169C0E9FF6AC07B
:10106000EAFF080EEF6E06D069C0E9FF6AC0EAFF2A
:10107000010EEF6E0FD02E6A2D6A2B0E6925E96ED8
:10108000000E6A21EA6EEF8A69C0E9FF6AC0EAFFD2
:10109000010EEF6E06D069C0E9FF6AC0EAFF010EDB
:1010A000EF6E08D02C6A2B6A69C0E9FF6AC0EAFFBC
:1010B000010EEF6E06D069C0E9FF6AC0EAFF010EBB
:1010C000EF6E20EF0AF0030E6925E96E000E6A212B
:1010D000EA6EEF346C6F6C37FC0E6C17020E6925EC
:1010E000E96E000E6A21EA6ED890EF346C13010E9F
:1010F0006925E96E000E6A21EA6EEF506C116B6F84
:101100006B51070808E02B0E6925E96E000E6A2175
:10111000EA6EEFAC56D02B0E6925E96E000E6A21FF
:10112000EA6EEF8C270E6925E96E000E6A21EA6EE1
:10113000EFCF6CF0ECCF6DF0ECCF6EF0ECCF6FF04A
:101140006F530CE16E530AE16D5308E16C513108A5
:1011500005E3020E6C6F6D6F28DC1AD12B0E69252A
:10116000E96E000E6A21EA6EEF882B0E6925E96EA2
:10117000000E6A21EA6EEF9C270E6925E96E000ECB
:101180006A21EA6EEE52EE52EC6AED52EF6AED52CF
:10119000EF6AED52EF6A230E6925E96E000E6A21AF
:1011A000EA6EEE52EE52EC6AED52EF6AED52EF6AE1
:1011B000ED52EF6A69C0E9FF6AC0EAFF040EEF6E04
:1011C000E7D0230E6925E96E000E6A21EA6EEFCFA3
:1011D0006CF0ECCF6DF0ECCF6EF0ECCF6FF06F53A6
:1011E00045E16E5343E16D510B0840E303E16C515F
:1011F000B7083CE36B5339E1070E6925E96E000E31
:101200006A21EA6EEFCF6CF0ECCF6DF0ECCF6EF0B0
:10121000ECCF6FF06F530AE16E5308E16D510A088D
:101220001CE2FF0A03E16C51B80817E2230E69259E
:10123000E96E000E6A21EA6EEE52EE52EC6AED5251
:10124000EF6AED52EF6AED52EF6A69C0E9FF6AC0DA
:10125000EAFF060EEF6E9CD008D0060E6925E96EF7
:10126000000E6A21EA6EEFCF6BF03FD06B533DE189
:10127000070E6925E96E000E6A21EA6EEFCF6CF069
:10128000ECCF6DF0ECCF6EF0ECCF6FF06F5307E169
:101290006E5305E16D5303E16C5164081EE22B0EA1
:1012A0006925E96E000E6A21EA6EEF88230E692532
:1012B000E96E000E6A21EA6EEE52EE52EC6AED52D1
:1012C000EF6AED52EF6AED52EF6A69C0E9FF6AC05A
:1012D000EAFF040EEF6E5CD008D0060E6925E96EB9
:1012E000000E6A21EA6EEFCF6BF06B51020A07E045
:1012F000040A13E0020A20E0070A2DE03BD0060EA4
:101300006C6F6D6FD5EC04F0060E6925E96E000E6A
:101310006A21EA6E020EEF6E3BD0020E6C6F060E73
:101320006D6FD5EC04F0060E6925E96E000E6A219A
:10133000EA6E060EEF6E2CD0010E6C6F060E6D6F0E
:10134000D5EC04F0060E6925E96E000E6A21EA6EFE
:10135000040EEF6E1DD0060E6C6F020E6D6FD5EC95
:1013600004F0060E6925E96E000E6A21EA6E030E8E
:10137000EF6E0ED0060E6C6F010E6D6FD5EC04F0A3
:10138000060E6925E96E000E6A21EA6E010EEF6E07
:1013900020EF0AF06751E96E68C0EAFFEF5011E0F4
:1013A000010A16E0030A1BE0010A20E0070A25E013
:1013B000010A29E0030A2DE0010A31E00F0A35E0B5
:1013C0003AD068C06AF067C069F09FEF04F038D087
:1013D00068C06AF067C069F0E0EF04F031D068C01F
:1013E0006AF067C069F091EF05F02AD068C06AF032
:1013F00067C069F0DCEF05F023D068C06AF067C011
:1014000069F049D41DD068C06AF067C069F091D511
:1014100017D068C06AF067C069F0E4DD11D068C019
:101420006AF067C069F0EED50BD068C06AF067C09B
:1014300069F049D605D068C06AF067C069F0D2DDAE
:1014400055EF0AF0F86AF1949F80D08E078E700EE7
:10145000D36E400E9B6ED350010E626F010E636F10
:10146000010E646F010E656F666B5F6A616B606B86
:101470005B6A5C6A5E6A5D6A0B0E2C6EB80E2B6E40
:101480000B0E2E6EB80E2D6EC150C00B0F09C16E23
:10149000700ED36E400E9B6ED35032EF04F041EFCE
:0E14A00004F0686B2F0E676F75D7F9D7030045
:020000040030CA
:0E00000000C8181E0086B1003FC03FE03F4020
:00000001FF
;PIC18F2685
;CRC=AD4C  CREATED="19-Aug-26 16:39"
